:020000040000fa
:080000000002040000000000f2
:020000040000fa
:0400080000050000ef
:020000040000fa
:04000c0030050000bb
:020000040000fa
:04001000e404000004
:020000040000fa
:0400140026050000bd
:020000040000fa
:040018001c050000c3
:020000040000fa
:04001c00e4040000f8
:020000040000fa
:04002000e4040000f4
:020000040000fa
:04002400e4040000f0
:020000040000fa
:04002800e4040000ec
:020000040000fa
:04002c00e4040000e8
:020000040000fa
:04003000e4040000e4
:020000040000fa
:04003400fe020000c8
:020000040000fa
:04003800c4040000fc
:020000040000fa
:04003c00e4040000d8
:020000040000fa
:04004000e4040000d4
:020000040000fa
:0400440010030000a5
:020000040000fa
:04004800e4040000cc
:020000040000fa
:04004c00e4040000c8
:020000040000fa
:04005000e4040000c4
:020000040000fa
:040054008a0300001b
:020000040000fa
:040058005a03000047
:020000040000fa
:04005c00e4040000b8
:020000040000fa
:04006000cc040000cc
:020000040000fa
:04006400e4040000b0
:020000040000fa
:04006800e4040000ac
:020000040000fa
:04006c00e4040000a8
:020000040000fa
:04007000e4040000a4
:020000040000fa
:04007400e4040000a0
:020000040000fa
:04007800e40400009c
:020000040000fa
:04007c00e404000098
:020000040000fa
:04008000e404000094
:020000040000fa
:04008400e404000090
:020000040000fa
:04008800d40400009c
:020000040000fa
:04008c00e404000088
:020000040000fa
:04009000e404000084
:020000040000fa
:04009400e404000080
:020000040000fa
:04009800e40400007c
:020000040000fa
:04009c00e404000078
:020000040000fa
:0400a0001404000044
:020000040000fa
:0400a40072030000e3
:020000040000fa
:0400a800e40400006c
:020000040000fa
:0400ac00e404000068
:020000040000fa
:0400b000e404000064
:020000040000fa
:0400b4002203000023
:020000040000fa
:0400b800dc04000064
:020000040000fa
:0400bc00e404000058
:020000040000fa
:0400c000e404000054
:020000040000fa
:0400c400e404000050
:020000040000fa
:0400c800e40400004c
:020000040000fa
:0400cc00e404000048
:020000040000fa
:0400d000e404000044
:020000040000fa
:0400d400e404000040
:020000040000fa
:0400d800e40400003c
:020000040000fa
:0400dc00e404000038
:020000040000fa
:0400e000e404000034
:020000040000fa
:0400e400e404000030
:020000040000fa
:0400e800e40400002c
:020000040000fa
:0400ec00e404000028
:020000040000fa
:0400f000e404000024
:020000040000fa
:0400f400e404000020
:020000040000fa
:0400f800e40400001c
:020000040000fa
:0400fc00e404000018
:020000040000fa
:04010000e404000013
:020000040000fa
:04010400e40400000f
:020000040000fa
:04010800e40400000b
:020000040000fa
:04010c00e404000007
:020000040000fa
:04011000e404000003
:020000040000fa
:04011400e4040000ff
:020000040000fa
:04011800e4040000fb
:020000040000fa
:04011c00e4040000f7
:020000040000fa
:04012000e4040000f3
:020000040000fa
:04012400e4040000ef
:020000040000fa
:04012800e4040000eb
:020000040000fa
:04012c00fc030000d0
:020000040000fa
:04013000e4040000e3
:020000040000fa
:04013400e4040000df
:020000040000fa
:04013800e4040000db
:020000040000fa
:04013c00e4040000d7
:020000040000fa
:04014000e4040000d3
:020000040000fa
:04014400e4040000cf
:020000040000fa
:04014800e4040000cb
:020000040000fa
:04014c00e4040000c7
:020000040000fa
:04015000e4040000c3
:020000040000fa
:04015400e4040000bf
:020000040000fa
:04015800e4040000bb
:020000040000fa
:04015c00e4040000b7
:020000040000fa
:04016000e4040000b3
:020000040000fa
:04016400e4040000af
:020000040000fa
:04016800e4040000ab
:020000040000fa
:04016c00e4040000a7
:020000040000fa
:04017000e4040000a3
:020000040000fa
:04017400e40400009f
:020000040000fa
:04017800e40400009b
:020000040000fa
:04017c00e404000097
:020000040000fa
:04018000e404000093
:020000040000fa
:04018400e40400008f
:020000040000fa
:04018800e40400008b
:020000040000fa
:04018c00e404000087
:020000040000fa
:04019000e404000083
:020000040000fa
:04019400e40400007f
:020000040000fa
:04019800e40400007b
:020000040000fa
:04019c00e404000077
:020000040000fa
:0401a000e404000073
:020000040000fa
:0401a400e40400006f
:020000040000fa
:0401a800e40400006b
:020000040000fa
:0401ac00e404000067
:020000040000fa
:0401b000e404000063
:020000040000fa
:0401b400e40400005f
:020000040000fa
:0401b800e40400005b
:020000040000fa
:0401bc00e404000057
:020000040000fa
:0401c000e404000053
:020000040000fa
:0401c400e40400004f
:020000040000fa
:0401c800e40400004b
:020000040000fa
:0401cc00e404000047
:020000040000fa
:0401d000e404000043
:020000040000fa
:0401d400e40400003f
:020000040000fa
:0401d800e40400003b
:020000040000fa
:0401dc00e404000037
:020000040000fa
:0401e000e404000033
:020000040000fa
:0401e400e40400002f
:020000040000fa
:0401e800e40400002b
:020000040000fa
:0401ec00e404000027
:020000040000fa
:0401f000e404000023
:020000040000fa
:0401f400e40400001f
:020000040000fa
:0401f800e40400001b
:020000040000fa
:0401fc00e404000017
:020000040000fa
:04020000e404000012
:020000040000fa
:04020400e40400000e
:020000040000fa
:04020800e40400000a
:020000040000fa
:04020c00e404000006
:020000040000fa
:04021000e404000002
:020000040000fa
:04021400e4040000fe
:020000040000fa
:04021800e4040000fa
:020000040000fa
:04021c00e4040000f6
:020000040000fa
:04022000e4040000f2
:020000040000fa
:04022400e4040000ee
:020000040000fa
:04022800e4040000ea
:020000040000fa
:04022c00e4040000e6
:020000040000fa
:04023000e4040000e2
:020000040000fa
:04023400e4040000de
:020000040000fa
:04023800e4040000da
:020000040000fa
:04023c00e4040000d6
:020000040000fa
:04024000e4040000d2
:020000040000fa
:04024400e4040000ce
:020000040000fa
:04024800e4040000ca
:020000040000fa
:04024c00e4040000c6
:020000040000fa
:04025000e4040000c2
:020000040000fa
:04025400e4040000be
:020000040000fa
:04025800e4040000ba
:020000040000fa
:04025c00e4040000b6
:020000040000fa
:04026000e4040000b2
:020000040000fa
:04026400e4040000ae
:020000040000fa
:04026800e4040000aa
:020000040000fa
:04026c00e4040000a6
:020000040000fa
:04027000e4040000a2
:020000040000fa
:04027400e40400009e
:020000040000fa
:04027800e40400009a
:020000040000fa
:04027c00e404000096
:020000040000fa
:04028000e404000092
:020000040000fa
:04028400e40400008e
:020000040000fa
:04028800e40400008a
:020000040000fa
:04028c00e404000086
:020000040000fa
:04029000e404000082
:020000040000fa
:04029400e40400007e
:020000040000fa
:04029800e40400007a
:020000040000fa
:04029c00e404000076
:020000040000fa
:0402a000e404000072
:020000040000fa
:0402a400e40400006e
:020000040000fa
:0402a800e40400006a
:020000040000fa
:0402ac00e404000066
:020000040000fa
:0402b000e404000062
:020000040000fa
:0402b400e40400005e
:020000040000fa
:0402b800e40400005a
:020000040000fa
:0402bc00e404000056
:020000040000fa
:0402c000e404000052
:020000040000fa
:0402c400e40400004e
:020000040000fa
:0402c800e40400004a
:020000040000fa
:0402cc00e404000046
:020000040000fa
:0402d000e404000042
:020000040000fa
:0402d400e40400003e
:020000040000fa
:0402d800e40400003a
:020000040000fa
:0402dc00e404000036
:020000040000fa
:0402e000e404000032
:020000040000fa
:0402e400e40400002e
:020000040000fa
:0402e800e40400002a
:020000040000fa
:0402ec00e404000026
:020000040000fa
:0402f000e404000022
:020000040000fa
:0402f400e40400001e
:020000040000fa
:0402f800e40400001a
:020000040000fa
:0402fc00e404000016
:020000040000fa
:04030000880400006d
:020000040000fa
:040304001c040000d5
:020000040000fa
:04030800a604000047
:020000040000fa
:04030c005204000097
:020000040000fa
:04031000e404000001
:020000040000fa
:100400000f4021000eff24000e01880000000000b4
:10041000000020000000e000020032000001200087
:100420002002880014000700920107000000e0008d
:1004300003003a00e0f9210001002000020037002b
:100440000000200001002000810f70000100320038
:100450000f000700000020000000e0000200320052
:100460000000020000000000000a0200000000007e
:100470000040da000000fe00201720000000e0002d
:1004800002003200002020009001880000000600d9
:10049000a1028800800478000000eb001f003700f4
:1004a000e284440054a0b4009905ba00e2844400f8
:1004b00054a0b4009906ba00e284440054a0b400e9
:1004c0000006eb00476fde00fd07b200ae018800ba
:1004d000636ce10003003a000ad801000000eb0061
:1004e0000e003700606ce10008003a00004deb00a0
:1004f0000a05e800020039003420ec000af0a000f0
:100500008b05e900f9ff3e00040037006168e10057
:10051000010032000086eb000b00070019c7ba008b
:100520000e04e0001905ba0003003a000a00e000da
:10053000dbff3a0000000600fe07b200ae028800b2
:100540008a047800f5ff37000cd0a300e20f4d00bd
:100550001c00390089027800354dba000a05e80010
:10056000020039003420ec000af0a0008b05e900fd
:100570000f003200254dba000a05e80002003900dc
:100580003420ec000af0a0008b05e90008003200de
:100590000c00e0000600320015cdba000a05e800a4
:1005a000020039003420ec000af0a0008b05e900bd
:1005b0008984e80054a0b4000b00e000e2ff3a0098
:1005c000000006009902ba00055d78008b05e9007d
:1005d000f7ff3200c82ade00055d78008b05e900d0
:1005e000f3ff32000c00e000f1ff320019ddba0029
:1005f000eeff3700fa0b040000000000801f7800b7
:100600000000fa00708180000000e800708188001e
:100610000068a9000080fa004f0078000040060042
:10062000801f78000000fa00608180000000e80070
:100630006081880000e8a9000080fa004f0078007f
:1006400000400600809fbe000000fa000468a90078
:1006500050208000610060000000e00001003200d6
:100660000a04a90050208000620060000000e00041
:100670000d00320000218000620060000000e000f8
:1006800008003200a00b210051c0b30001487800df
:10069000d00b210011c0b3000148780010c0b30096
:1006a00042f0b7000a24a9000080fa004f00be0003
:1006b00000400600809fbe000000fa00000000001d
:1006c0001111800000102000008060000000e00098
:1006d000fbff32000188a9000080fa004f00be0035
:1006e00000400600809fbe000000fa0000000000ed
:1006f0009111800000102000008060000000e000e8
:10070000fbff320003e8a9000080fa004f00be00a2
:1007100000400600809fbe00821f78000000fa00a3
:100720003011800080828800818280005005200086
:10073000808f500015003a00e0818000e10f5000ea
:1007400012003a00d08180000000e0000f003a0063
:1007500020002000e0818800d0818000818280001c
:1007600001017800f10f20008100610000014000cc
:10077000a00a21000000410001087800d08180001b
:100780000000e800d081880016003700e08180007a
:10079000e20f500013003a00d08180008182800077
:1007a00001017800f10f200081006100000140008c
:1007b000a00a21000000410001087800d0818000db
:1007c0000000e800d0818800d0818000e80f500050
:1007d00004003a0010c0b30044f0b7003a30ef0014
:1007e0003c30ef000168a9000080fa004f0178005a
:1007f0004f00be0000400600801f78000000fa0095
:1008000010118000640060000000e000020032006f
:1008100010002000e08188000828a9000080fa006c
:100820004f007800004006000000fa0003c8a9004d
:100830000080fa0000400600809fbe003200f800f1
:100840003400f80010002000a001880000202000e3
:1008500090018800000000000000fa0001288000dc
:1008600000802000008060000000e00007003200ef
:10087000a02880004400de0080828800b02880002c
:100880009082880010c0b30043f0b70016e8a900ba
:100890000080fa003400f9003200f9004f00be0079
:1008a00000400600809fbe003200f8003400f800cf
:1008b00010002000a0018800002020009001880086
:1008c000000000000000fa000129800000802000e4
:1008d000008060000000e00007003200a0298000d6
:1008e0004400de0080828800b02980009082880069
:1008f00010c0b30045f0b7001728a9000080fa0027
:100900003400f9003200f9004f00be00004006003c
:100910003200f8003400f800881f7800180020002a
:10092000a80188000820200098018800000000002d
:100930004f0478000000fa0016c8a9002c8ea80009
:100940002caea8002ccea800ffff37003200f80024
:100950003400f800881f780018002000a8018800e3
:100960000820200098018800000000004f04780053
:100970000000fa001708a9002c8ea8002caea800d1
:100980002ccea800ffff37000000fa000088a90065
:100990000080fa00004006000000fa0001c8a9002b
:1009a0000080fa00004006000000fa000308a900d9
:1009b0000080fa00004006000000fa000488a90048
:1009c0000080fa00004006003200f8003400f80011
:1009d000881f780018002000a80188000820200047
:1009e00098018800000000004f0478000000fa0021
:1009f0002c8ea8002caea8002ccea800ffff37003c
:100a00003200f8003400f800881f78001800200039
:100a1000a80188000820200098018800000000003c
:100a20004f0478000000fa002c8ea8002caea8001d
:100a30002ccea800ffff37000000fa002c8ea80083
:100a40002caea8002ccea800ffff37000000fa0053
:100a50002c8ea8002caea8002ccea800ffff3700db
:100a60000000fa002c8ea8002caea8002ccea80006
:100a7000ffff37000000050003f0a200889fbe00c2
:100a80008a9fbe008c1f7800fe000700050133001e
:100a90006450e1004f0032006420e1005200320057
:100aa00003826c0007003b000905d0000306d0005c
:100ab000820f54000c065d00020039000200320073
:100ac00089017800030678008582550004003d0006
:100ad0000003fd008103fd008502ea008b854200d2
:100ae000840f720002003b0060001000e0801800dc
:100af0006011b8000005eb007a28e1000a00390017
:100b000006007800c75ddd00f707b200878075003a
:100b10002d003700828171000a01780061056000b4
:100b20008180d1000080d3008502e900f9ff3b00fd
:100b3000060440008784480002003b006004140063
:100b4000e0841c000988a300070032008a8171003c
:100b500082817100610164008904d1000884d3009e
:100b60008b05e800170037000978a30013003a004e
:100b70000b00e000130034008b05e900080444007a
:100b800089844c000a4474000978a3000d003a00df
:100b90000b00e000070034008b05e9000804440066
:100ba00089844c0001003a000b0020000978a30062
:100bb000f7ff32000001eb00020037008281710074
:100bc0000a017800740007000cf0a70001f0a000f3
:100bd000bd0037006420e10002003a00838f6c0002
:100be000bd0033000801be000200be00b6003700a1
:100bf000889fbe008a9fbe008c1f7800a10007005e
:100c0000a800330003866c006450e1002e0032001f
:100c10006420e100330032006150e1002f00320017
:100c20006120e1003100320085855500eb07b000fe
:100c300009002000080420000500370008044400d3
:100c400089844c000a0031000603430087834b006f
:100c50000001530081815b00f8ff33000203be00f6
:100c60000800a0000804440089844c00f6ff390005
:100c7000c639dd008301730001003200130020003b
:100c80008904d1000884d3000998a300050032002c
:100c90000800a7000300a0008904d1000884d30045
:100ca0008b05e8008904d1000884d3000001eb0023
:100cb0000281d2003800070001f0a1000cf0a7006b
:100cc00001f0a000800037006420e10082003200c3
:100cd0000801be000200be00f7ff37006120e100fe
:100ce0007d0032006000b800f3ff370000002000f4
:100cf00001f82700f0ff370014002000ad00370096
:100d0000f4ff2f00ab0037000001be0048000700d1
:100d10000470a70003f0a1006509b10016003200bd
:100d20000d0035006828e10006003500f0ff2f00b7
:100d3000f1ff27000300e00013003b000100280042
:100d40000000050000004000818048008502e900a5
:100d5000fcff3a0008003700f88f420002003c0018
:100d60008000eb00000005008100d1000080d3006e
:100d70008502e800fcff3a000300e00002003b00af
:100d800060001000e0801800000006004f89de00bf
:100d900082017800a20037008100200061805500a8
:100da0000b003d000b00200061fe2f000100e10060
:100db0001d00340082817100610164008904d1004a
:100dc0000884d3000000e800faff3a007100200018
:100dd000610064000300700002006000090032003e
:100de00061044400e0844c000988a500050032003d
:100df0008b05e8006808e10002003a008904d10090
:100e00000884d300f20f20000258e10005003d00e5
:100e1000c75ddd00f907b200898075000800780021
:100e2000000006000bf827008b007800000005008a
:100e3000c70ade00f107b200f50fb2000800320069
:100e4000e1cf4200020032000170a0002400050042
:100e5000810f700001003200040805004400050005
:100e6000810f700002003a00140005008502e900bd
:100e70000000400081c04800fcff3b000170a00062
:100e8000240005000004be00e9ff07000003be00c7
:100e90000405be000200be00e5ff0700844f750098
:100ea000000006000200be006450e10005003600ac
:100eb0006420e100020036000968a30001003a0046
:100ec0000800be000160a0004f0678004f05be007c
:100ed0004f04be0000000600f0ff2f00f1ff2700c6
:100ee000f9ff3700889fbe008a9fbe008c1f7800e4
:100ef000e4ff0700ebff330003866c006450e10061
:100f0000240032006420e100270032006150e1003b
:100f1000220032006120e100210032008b85420076
:100f2000eb07b1000134b800003ab80008044200f1
:100f300089844a00013ab8000030b8008880400037
:100f400009014a000400330000004000818048008d
:100f5000020149008b05e900c909dd008301700029
:100f60000100320013002000c814de004814dd0028
:100f70004709de001200b200c808de0008847000d5
:100f800085ff070001f0a1000cf0a70001f0a00010
:100f9000cdff37006120e100cfff32000801be0025
:100fa0000200be00f7ff37006150e100fcff3a008d
:100fb000c9ff3700889fbe008a9fbe00841f78004b
:100fc000b0ff07004f00780011003300f0ff2f0042
:100fd000838f6c0006003b00040565000a00a70033
:100fe0000800370009f0a6001000200008003700b4
:100ff000820f5400838f5c00030039001000200032
:1010000001003e000000200009f0a7000000ea00f7
:101010004f05be004f04be000000e00000000600c7
:10102000881f7800030478000300e00007003d00fb
:1010300060001000e080180060011900e0811900d4
:1010400002003b0001f02d00030037000400070000
:1010500008f0a70001f0a0004f047800000006008f
:10106000889fbe008a9fbe0000827000040271004b
:1010700004827100260032000004be000200be009f
:101080006011b8006b092000950220000182cf009a
:101090000a0039000541b1000082cf000700390085
:1010a0000541b1000982cf00040039000541b100bb
:1010b0000882cf00010039000541b100054252000d
:1010c000120032000a003b0082817100610164005d
:1010d0008100d1000080d3008984d3000884d3002c
:1010e0008b05e8000442e800f7ff3a0007003700ec
:1010f0000804440089844c000000480081804800b6
:101100008b05e9000442e900f9ff3a0022ff0700dd
:0c1110004f05be004f04be0000000600aa
:020000040000fa
:10111c002a2a00002a540000524100004e530000bd
:10112c004d49000054540000494e00004720000077
:10113c004f4e00002d4200004f4100005244000071
:10114c0020530000454e0000534f00005220000079
:10115c00564100004c550000455300002a2a00005f
:10116c002a0000004c6f0000636100006c2000003e
:10117c00506f000074200000566f00006c7400006b
:10118c0061670000653a00002052000065610000b4
:10119c00646900006e670000203d00002000000024
:1011ac004c6f0000636100006c200000546500006f
:1011bc006d700000657200006174000075720000b3
:1011cc00653a00002052000065610000646900006f
:1011dc006e670000203d0000200000004c6f0000f6
:1011ec00636100006c2000005377000069740000fc
:1011fc0063680000207300007461000074750000c7
:10120c007300000053570000313a0000204f0000db
:10121c00464600002000000053570000313a000001
:10122c00204f00004e00000053570000323a0000df
:10123c00204f0000464600002000000053570000dd
:10124c00323a0000204f00004e00000053570000bf
:10125c00333a0000204f00004646000020000000fa
:10126c0053570000333a0000204f00004e0000009e
:10127c002a2a00002a200000524500004d4f000091
:10128c005445000020430000414e0000204d00005a
:10129c004553000053410000474500002049000021
:1012ac00442000003d2000003078000000200000a9
:1012bc0052450000434500004956000045440000db
:1012cc00202a00002a2a000000520000656d000050
:1012dc006f74000065200000506f00007420000047
:1012ec00566f00006c74000061670000653a0000e6
:1012fc0020000000526500006d6f00007465000056
:10130c0020540000656d00007065000072610000e3
:10131c0074750000726500003a2000000052000055
:10132c00656d00006f7400006520000053770000ad
:10133c0069740000636800002053000074610000b1
:10134c0074750000730000002a2a00002a20000097
:10135c00524500004d4f000054450000204c000049
:10136c00494e0000204d0000455300005341000041
:10137c004745000020490000442000003d200000ab
:10138c00002a00002a2a000020520000454d0000cf
:10139c004f54000045200000534500004e540000ff
:1013ac00204d00004553000053410000474500000c
:1013bc0020520000454300004549000056450000fe
:1013cc00442000002a2a00002a0000005265000078
:1013dc006d6f000074650000205000006f740000f9
:1013ec00205600006f6c00007461000067650000ff
:0413fc003a000000b3
:020000040000fa
:101400000000fa00c806070084030700330607003f
:10141000210807009902070009030700d00607000a
:101420002e30ef00b0cbb30000f0b700400d21002c
:10143000a1cab30001487800500d2100b1cbb30020
:1014400001487800600d2100c1ccb300014878004c
:10145000700d2100d1cdb30001487800800d21002e
:10146000e1ceb30001487800900d210080c0eb0070
:1014700001487800a00d21008040eb000148780071
:10148000b00d210011c1b3000148780080cfb30036
:1014900001f0b70070c0b30002f0b70090c0b30015
:1014a00003f0b70040c0b30004f0b70030c0b30091
:1014b00005f0b70020c0b30006f0b70070c0b3005d
:1014c00007f0b7000870ef0080cfb30011f0b7004d
:1014d00090c0b30012f0b70080c0b30013f0b700a3
:1014e00050c0b30014f0b700f0c0b30015f0b7005f
:1014f000f0c0b30016f0b700a0c0b30017f0b700fb
:101500001870ef000100370000000000c08280006a
:101510000000e800c0828800c0828000e10f500017
:10152000010034005830ef002e30ef000c05a80009
:101530002c05a8000000000070818000e10f500021
:10154000fdff34002e30ef00a0bf2000000001009e
:101550000c05a9002c05a900a00b210040090700db
:10156000f285800003868000100a20000100200020
:10157000800f5100818f5900e3ff3a0010868000f0
:101580004400de006f0060000000e00003003a004d
:1015900080cfb30009f0b7000200370040c0b300ad
:1015a00009f0b70010868000004078006f406000ae
:1015b0000af0b700208680004400de00004078007a
:1015c0006f4060000bf0b70020868000004078007c
:1015d0006f4060000cf0b700308680004400de00f1
:1015e000004078006f4060000df0b700308680004a
:1015f000004078006f4060000ef0b7004086800029
:101600004400de00004078006f4060000ff0b7003b
:1016100040868000004078006f40600010f0b70006
:10162000508680004400de006f0060000000e00093
:1016300003003a0080cfb30019f0b7000200370072
:1016400040c0b30019f0b700508680000040780019
:101650006f4060001af0b700608680004400de0032
:10166000004078006f4060001bf0b700608680008b
:10167000004078006f4060001cf0b700708680006a
:101680004400de00004078006f4060001df0b700ad
:1016900070868000004078006f4060001ef0b70048
:1016a000808680004400de00004078006f406000cb
:1016b0001ff0b70080868000004078006f40600017
:1016c00020f0b700a0c1b30000f0b70009d0bf0000
:1016d0000080fb004400dd00804078000ad0bf009d
:1016e00000c0700080407800400d21000148780063
:1016f0000bd0bf000080fb004400dd00804078007c
:101700000cd0bf0000c0700080407800500d210058
:10171000014878000dd0bf000080fb004400dd00d0
:10172000804078000ed0bf0000c07000804078007c
:10173000600d2100014878000fd0bf000080fb0041
:101740004400dd008040780010d0bf0000c0700071
:1017500080407800700d21000148780019d0bf004a
:101760000080fb004400dd00804078001ad0bf00fc
:1017700000c0700080407800800d21000148780092
:101780001cd0bf000080fb004400dd0080407800da
:101790001bd0bf0000c0700080407800900d210079
:1017a000014878001ed0bf000080fb004400dd002f
:1017b000804078001dd0bf0000c0700080407800dd
:1017c000a00d2100014878001fd0bf000080fb0061
:1017d0004400dd008040780020d0bf0000c07000d1
:1017e00080407800b00d2100014878006e060700a7
:1017f00046ff37000000fa0009d0bf0001f0b70033
:101800000ad0bf0002f0b7000bd0bf0003f0b70052
:101810000cd0bf0004f0b7000dd0bf0005f0b7003a
:101820000ed0bf0006f0b7000fd0bf0007f0b70022
:1018300010d0bf0008f0b70019d0bf0011f0b700fa
:101840001ad0bf0012f0b7001bd0bf0013f0b700d2
:101850001cd0bf0014f0b7001dd0bf0015f0b700ba
:101860001ed0bf0016f0b7001fd0bf0017f0b700a2
:1018700020d0bf0018f0b70001d0bf000080fb00ef
:10188000cc00dd0002d0bf000080fb004800dd007e
:101890008100700003d0bf000080fb004400dd0029
:1018a0008100700004d0bf000080fb0001007000c8
:1018b000b028880005d0bf000080fb00cc00dd0010
:1018c00006d0bf000080fb004800dd0081007000f2
:1018d00007d0bf000080fb004400dd0081007000e5
:1018e00008d0bf000080fb0001007000a028880025
:1018f00011d0bf000080fb00cc00dd0012d0bf0083
:101900000080fb004800dd008100700013d0bf00a4
:101910000080fb004400dd008100700014d0bf0097
:101920000080fb0001007000b029880015d0bf00c6
:101930000080fb00cc00dd0016d0bf000080fb0063
:101940004800dd008100700017d0bf000080fb0060
:101950004400dd008100700018d0bf000080fb0053
:1019600001007000a02988000080fa000000060035
:101970000000fa00507180004700de006140600006
:1019800000c0ea00614060000080fb006100600070
:101990004400dd00617180000140a1000100700081
:1019a00060718800507180004800de006140600076
:1019b00000c0ea00614060000080fb006100600040
:1019c0004500dd00617180000150a1000100700040
:1019d00060718800507180004900de006140600045
:1019e00000c0ea00614060000080fb006100600010
:1019f0004600dd00617180000160a10001007000ff
:101a000060718800300120003d06070040818000a1
:101a100020818800400620007b070700208180008d
:101a2000cf80de00d9fc070002002000030a24005a
:101a30002cfd070002002000035824006cfc070066
:101a4000f081880001828800200621003082880011
:101a500032828000f08180000182800078070700d8
:101a60003342a800e0882800e307070000000000d8
:101a70009111800000102000008060000000e00054
:101a8000fbff3200a0002000a01188000000000031
:101a90009111800000102000008060000000e00034
:101aa000fbff3200d0002000a0118800808b2800ae
:101ab000d10707002a30ef000f00370000000000b8
:101ac0009111800000102000008060000000e00004
:101ad000fbff320050818000210621000080400081
:101ae000104078000000fb00a011880050818000a9
:101af0000000e8005081880050818000e40f500011
:101b0000eeff340000000000911180000010200062
:101b1000008060000000e000fbff3200a000200019
:101b2000a01188000000000091118000001020002a
:101b3000008060000000e000fbff3200d0002000c9
:101b4000a011880020012000ed05070040818000e1
:101b500030818800400620002b070700308180007c
:101b60000017b100cf80de0088fc07001258290062
:101b7000f31724001efc0700f08188000182880012
:101b8000200621003082880032828000f0818000af
:101b9000018280002a0707003342a800608d2800d8
:101ba000950707002a30ef000f0037000000000003
:101bb0009111800000102000008060000000e00013
:101bc000fbff320050818000210621000080400090
:101bd000104078000000fb00a011880050818000b8
:101be0000000e8005081880050818000e40f500020
:101bf000eeff340000000000911180000010200072
:101c0000008060000000e000fbff3200a000200028
:101c1000a011880000000000911180000010200039
:101c2000008060000000e000fbff3200d0002000d8
:101c3000a0118800408f28006f07070000000000f7
:101c40009111800000102000008060000000e00082
:101c5000fbff3200a0002000a0118800000000005f
:101c60009111800000102000008060000000e00062
:101c7000fbff3200d0002000a011880051718000cd
:101c800000082000008060000000e0000300320037
:101c90008090280058070700030037002091280093
:101ca000550707000000000091118000001020007f
:101cb000008060000000e000fbff3200a000200078
:101cc000a011880000000000911180000010200089
:101cd000008060000000e000fbff3200d000200028
:101ce000a011880051718000001020000080600069
:101cf0000000e00003003200a09128003e0707002a
:101d000003003700409228003b0707000000000056
:101d10009111800000102000008060000000e000b1
:101d2000fbff3200a0002000a0118800000000008e
:101d30009111800000102000008060000000e00091
:101d4000fbff3200d0002000a011880051718000fc
:101d500000202000008060000000e000030032004e
:101d6000c092280024070700030037006093280072
:101d700021070700000000009111800000102000e2
:101d8000008060000000e000fbff3200a0002000a7
:101d9000a0118800000000009111800000102000b8
:101da000008060000000e000fbff3200d000200057
:101db000a0118800507180004900de006140600081
:101dc0000080fb00610060000000e00002003a00bb
:101dd00001002400010037008000eb0050718000fa
:101de0004800de00614060000080fb006100600090
:101df0000000e00002003a0000002200010037006d
:101e00000000eb0081007000507180004700de0090
:101e1000614060000080fb00610060000000e000a5
:101e200002003a0000002100010037000000eb0032
:101e3000810070002081800001007000b0288800bf
:101e4000308180004400dd00a02888000c05a80037
:101e500000f421006c0607000c05a900a40507008a
:101e600000f4210068060700cf0407008038210035
:101e7000650607000080fa00000006000000fa0076
:101e80000134800000fc2f0080806000900320005f
:101e900001007000003488003caea900d1448000ed
:101ea000f0ff280080806000000025000100700025
:101eb000d044880016e8a90036e8a800d144800084
:101ec000f08f2f0080806000006020000100700013
:101ed000d044880016c8a90036c8a800d482800063
:101ee000e5828000f0828000018380000001be0056
:101ef0000400be00fbfb070083fb07000000780026
:101f00000000e900202888000145a8000105a8007c
:101f100000e5a9000128800080ff2f0000806000fc
:101f20006000b3000028880001e5a8001625ef0036
:101f30001425ef000080fa00000006000000fa00ff
:101f400000502400c03788003caea800d144800077
:101f5000f0ff280080806000000026000100700073
:101f6000d044880016e8a90036e8a800d1448000d3
:101f7000f08f2f0080806000006020000100700062
:101f8000d044880016c8a90036c8a800f082800096
:101f9000018380000200200003102400d1fb070011
:101fa0000002be00d0828000e18280000001be00fd
:101fb0000400be00cbfb0700d2cc2c00c3f42300ee
:101fc000c8fb070050fb070000007800402888008d
:101fd000f0828000018380000200200003102400b2
:101fe000c0fb07000002be00d0828000e1828000ba
:101ff0000001be000400be00bafb0700a299290040
:1020000093f92300b7fb07003ffb070000007800af
:10201000202888000105a80000e5a900012880000b
:1020200080ff2f00008060006000b300002888005f
:102030000165a80001e5a8000080fa000000060084
:102040000000fa0001348000f00f2c008080600056
:1020500000a0230001007000003488003caea900fd
:10206000e1448000f0f82f0080806000000520002f
:1020700001007000e04488001728a9003728a80054
:10208000e144800080ff2f00008060006000b3000a
:10209000e04488001708a9003708a800d48280000f
:1020a000e5828000f0828000018380000001be0094
:1020b0000400be008bfb070013fb07000000780044
:1020c0000000e900202988002145a8002105a8007a
:1020d00020e5a9000129800080ff2f00008060001a
:1020e0006000b3000029880021e5a8003625ef0034
:1020f0003425ef000080fa00000006000000fa001e
:1021000060042000d03788003caea800e144800085
:10211000f0f82f00808060000006200001007000b1
:10212000e04488001728a9003728a800e14480006f
:1021300080ff2f00008060006000b300e044880052
:102140001708a9003708a800f082800001838000ea
:10215000020020000310240062fb07000002be0002
:10216000d0828000e18280000001be000400be0039
:102170005cfb0700d2cc2c00c3f4230059fb070002
:10218000e1fa07000000780040298800f082800012
:1021900001838000020020000310240051fb07008f
:1021a0000002be00d0828000e18280000001be00fb
:1021b0000400be004bfb0700a299290093f92300fd
:1021c00048fb0700d0fa07000000780020298800ab
:1021d0002105a80020e5a9000129800080ff2f002b
:1021e000008060006000b300002988002165a8001d
:1021f00021e5a8000080fa00000006000000fa00b7
:1022000043d0bf00e14f500002003a005e020700d9
:102210004370ef000080fa00000006000000fa00a2
:102220000028ef000228ef000428ef000628ef0046
:102230000828ef0001438000f0f82f008080600044
:102240000006200001007000004388002142800049
:10225000f0ff28000080600000e0a000204288001d
:102260000080fa00000006000000fa003342a800d7
:10227000e0932800e0050700f285800003868000d7
:1022800000f02f0001002000020278000301780016
:102290008001780001007800030262000000610004
:1022a0008000eb00c000dd00000020000001be0047
:1022b0006120b8000001710081817100481add00c1
:1022c0004810de0000007200c818de0000407800f0
:1022d0000000fb007082880071828000000f2000e7
:1022e0000080600060828800608280004400de0020
:1022f0000003b00060828800708280006f00600080
:102300000003b0005082880060828000c80507008a
:1023100050828000c6050700f0858000018680009d
:10232000004078000000fb0070828800718280000d
:10233000000f2000008060006082880060828000c2
:102340004400de000003b0006082880070828000dc
:102350006f0060000003b00050828800608280003f
:10236000b305070050828000b1050700d095280012
:10237000a10507000000000091118000001020005e
:10238000008060000000e000fbff3200a0002000a1
:10239000a0118800000000009111800000102000b2
:1023a000008060000000e000fbff3200d000200051
:1023b000a0118800b09628008f0507005186800084
:1023c000608680004800dd000100700020818800e8
:1023d00020818000cf80de006cfa07000200200020
:1023e000030a2400bffa070002002000035824005b
:1023f000fff90700f0818800018288002006210093
:102400003082880032828000f0818000018280006a
:102410000b0507002a30ef000f0037000000000016
:102420009111800000102000008060000000e0009a
:10243000fbff320050818000210621000080400017
:10244000104078000000fb00a0118800508180003f
:102450000000e8005081880050818000e40f5000a7
:10246000eeff3400000000009111800000102000f9
:10247000008060000000e000fbff3200a0002000b0
:10248000a0118800000000009111800000102000c1
:10249000008060000000e000fbff3200d000200060
:1024a000a01188000098280053050700318680009d
:1024b000408680004800dd000100700080828800b6
:1024c000808280000017b100cf80de002ffa070065
:1024d00012582900f3172400c5f90700f08188007d
:1024e000018288002006210030828800328280002c
:1024f000f081800001828000d10407002a30ef00c3
:102500000f00370000000000911180000010200033
:10251000008060000000e000fbff3200508180007e
:102520002106210000804000104078000000fb00e0
:10253000a0118800508180000000e80050818800d0
:1025400050818000e40f5000eeff340000000000d6
:102550009111800000102000008060000000e00069
:10256000fbff3200a0002000a01188000000000046
:102570009111800000102000008060000000e00049
:10258000fbff3200d0002000a011880050992800e5
:1025900019050700000000009111800000102000c4
:1025a000008060000000e000fbff3200a00020007f
:1025b000a011880000000000911180000010200090
:1025c000008060000000e000fbff3200d00020002f
:1025d000a011880010868000640060000000e00008
:1025e00003003a00c09228000305070003003700eb
:1025f0006093280000050700000000009111800092
:1026000000102000008060000000e000fbff3200ae
:10261000a0002000a011880000000000911180009f
:1026200000102000008060000000e000fbff32008e
:10263000d0002000a0118800108680006200600099
:102640000000e00003003a00a0912800ea0407001f
:102650000300370040922800e70407000000000054
:102660009111800000102000008060000000e00058
:10267000fbff3200a0002000a01188000000000035
:102680009111800000102000008060000000e00038
:10269000fbff3200d0002000a011880010868000cf
:1026a000610060000000e00003003a008090280014
:1026b000d10407000300370020912800ce04070052
:1026c00000000000911180000010200000806000d8
:1026d0000000e000fbff3200a0002000a0118800f5
:1026e00000000000911180000010200000806000b8
:1026f0000000e000fbff3200d0002000a0118800a5
:102700002c8ea800a0c0b300340407002c8ea900b2
:102710000080fa00000006000000fa003342a80022
:10272000a09a2800b404070060858000004078006b
:102730008000fb00f00320000080600070828800b1
:1027400071828000000f200000806000608288009d
:10275000608280004400de000003b00060828800d8
:10276000708280006f0060000003b000508288001b
:1027700060828000ae04070050828000ac04070035
:10278000d09528009c0407000000000091118000f3
:1027900000102000008060000000e000fbff32001d
:1027a000a0002000a011880000000000911180000e
:1027b00000102000008060000000e000fbff3200fd
:1027c000d0002000a0118800b09628008a040700dd
:1027d000b1858000a08580004800dd000100700008
:1027e0002081880020818000cf80de0067f907000b
:1027f00002002000030a2400baf9070002002000aa
:1028000003582400faf80700f0818800018288004c
:10281000200621003082880032828000f081800012
:1028200001828000060407002a30ef000f00370005
:102830000000000091118000001020000080600066
:102840000000e000fbff32005081800021062100e3
:1028500000804000104078000000fb00a0118800bc
:10286000508180000000e800508188005081800085
:10287000e40f5000eeff34000000000091118000d2
:1028800000102000008060000000e000fbff32002c
:10289000a0002000a011880000000000911180001d
:1028a00000102000008060000000e000fbff32000c
:1028b000d0002000a0118800009828004e040700d6
:1028c00091858000808580004800dd000100700057
:1028d00080828800808280000017b100cf80de00f7
:1028e0002af9070012582900f3172400c0f807003e
:1028f000f081880001828800200621003082880053
:1029000032828000f081800001828000cc030700c9
:102910002a30ef000f003700000000009111800006
:1029200000102000008060000000e000fbff32008b
:102930005081800021062100008040001040780076
:102940000000fb00a0118800508180000000e8001a
:102950005081880050818000e40f5000eeff340069
:102960000000000091118000001020000080600035
:102970000000e000fbff3200a0002000a011880052
:102980000000000091118000001020000080600015
:102990000000e000fbff3200d0002000a011880002
:1029a00050992800140407000000000091118000d5
:1029b00000102000008060000000e000fbff3200fb
:1029c000a0002000a01188000000000091118000ec
:1029d00000102000008060000000e000fbff3200db
:1029e000d0002000a0118800708580006100600088
:1029f0000000e00003003a00c0922800fe03070038
:102a00000300370060932800fb030700000000006c
:102a10009111800000102000008060000000e000a4
:102a2000fbff3200a0002000a01188000000000081
:102a30009111800000102000008060000000e00084
:102a4000fbff3200d0002000a011880070858000bc
:102a5000620060000000e00003003a00a09128003e
:102a6000e50307000300370040922800e203070057
:102a70000000000091118000001020000080600024
:102a80000000e000fbff3200a0002000a011880041
:102a90000000000091118000001020000080600004
:102aa0000000e000fbff3200d0002000a0118800f1
:102ab00070858000640060000000e00003003a00c0
:102ac00080902800cc0307000300370020912800e5
:102ad000c9030700000000009111800000102000d1
:102ae000008060000000e000fbff3200a00020003a
:102af000a01188000000000091118000001020004b
:102b0000008060000000e000fbff3200d0002000e9
:102b1000a01188002caea800a0c0b3002f030700ae
:102b20002caea9000080fa00000006000000fa00a8
:102b3000908280000170ef00908280000270ef00b0
:102b4000908280000370ef00908280000040780047
:102b50006f40600004f0b700808280000570ef00d5
:102b6000808280000670ef00808280000770ef0096
:102b700080828000004078006f40600008f0b7005d
:102b80000080fa00000006000000fa003342a800ae
:102b9000709c28009803070000000000911180003d
:102ba00000102000008060000000e000fbff320009
:102bb000a0002000a01188000000000091118000fa
:102bc00000102000008060000000e000fbff3200e9
:102bd000d0002000a0118800c09e280086030700b6
:102be00091828000f0ff200000806000208188003a
:102bf00020818000cf80de0064f807000200200002
:102c0000030a2400b7f8070002002000035824003c
:102c1000f7f70700f0818800018288002006210074
:102c20003082880032828000f08180000182800042
:102c3000030307002a30ef000f00370000000000f8
:102c40009111800000102000008060000000e00072
:102c5000fbff3200508180002106210000804000ef
:102c6000104078000000fb00a01188005081800017
:102c70000000e8005081880050818000e40f50007f
:102c8000eeff3400000000009111800000102000d1
:102c9000008060000000e000fbff3200a000200088
:102ca000a011880000000000911180000010200099
:102cb000008060000000e000fbff3200d000200038
:102cc000a01188002ccea800a0c0b300c30207004a
:102cd0002ccea9000080fa00000006000200fa00d5
:102ce000288ea90028aea90028cea90086cea8006b
:102cf00086eea80078cea80078eea800b17180001a
:102d0000f0c32f0000806000b07188002e30ef000b
:102d10002c30ef003a30ef003c30ef000000eb00c9
:102d2000000f7800070037001e0078008000400088
:102d3000a00a2100008040008000eb00010878001c
:102d40001e0fe8001e007800e70f5000f6ff340069
:102d500005e1a9000421a90004c1a90021088000ff
:102d6000000320000100700020088800a00220005d
:102d70001008880001428000f0ff28008080600079
:102d80000000230001007000004288000068a900d4
:102d90002068a80011e1a9001021a90010c1a90014
:102da0008108800000032000010070008008880076
:102db0000621ef00a0612000600888001142800019
:102dc000f0ff28000080600000d0a00010428800c2
:102dd00000e8a90020e8a80011e1a80005e1a8008a
:102de0000080fa00000006000000fa005171800027
:102df00000082000008060000000e0000a003200af
:102e00005171800000102000008060000000e00090
:102e10000500320051718000002020000080600019
:102e20000000e00013003a00e0c1b3006b020700ad
:102e30005171800000082000008060000000e00068
:102e40000a003200517180000010200000806000f4
:102e50000000e000050032005171800000202000d9
:102e6000008060000000e00002003a004870ef00bf
:102e7000010037004870ef000080fa0000000600f3
:102e80000000fa002a30ef000d0037002c8ea90058
:102e90002caea9002ccea900f0c0b3004f02070051
:102ea0002c8ea8002caea8002ccea800c0c0b30069
:102eb0004a020700508180000000e800508188002d
:102ec00050818000e50f5000f0ff34000080fa00d0
:102ed000000006000000fa002c8ea8002caea9000d
:102ee0002ccea90040c1b3003c0207002caea800c4
:102ef00040c1b300390207002ccea80020c3b300a4
:102f0000360207002ccea90040c1b30033020700ef
:102f10002caea90040c1b300300207002c8ea900de
:102f20000080fa00000006000000fa00213a80004c
:102f3000f0f32f0000806000203a8800213a8000e2
:102f400000fe2f0000806000203a88006002200010
:102f5000303a880040a7a9000080fa00000006006f
:102f60000000fa00792ea9007d2ea900642ea90088
:102f7000640ea80000062000a0368800e0002000b3
:102f80001034880001208000f08f2f000080600046
:102f900000a0a000002088000000000001208000a8
:102fa000000e20008080600000082000808f50000c
:102fb000faff3a000004a9003008200080208800b1
:102fc000202d200090208800f0012c003020880067
:102fd00001cba90001aba80001588000f0fc2f0034
:102fe000008060000050a000005888000158800058
:102ff000c0ff2f000080600000588800600420009f
:10300000105888007000200070588800204420006c
:1030100060588800002021002058880000202100ee
:103020003058880030e4a800802180003000b300d0
:103030008021880001eba8000002200000598800d0
:1030400000442000605988007000200070598800fa
:1030500020022000105988000020210020598800fb
:10306000002021003059880021eba8003120800089
:10307000f0ff210000806000302088000004a800dc
:10308000c1208000c0ff2f0000806000c0208800a9
:1030900000fe2f008021880000fe2f00a021880064
:1030a00000fe2f00c021880000422100002288007d
:1030b0000062210020228800802180000030a000d2
:1030c00080218800a02180000030a000a02188007d
:1030d000c02180000030a000c021880000228000b4
:1030e0000030a10000228800202280000030a100d2
:1030f000202288000121800000ff2f000080600056
:103100000000a0000021880001218000f0f02f00c5
:10311000008060000040a0000021880001218000a4
:10312000f00f2f00008060000080a00000218800c8
:1031300001218000f0ff20000080600000c0a0009e
:10314000002188001404a8001424a8000004a90089
:1031500031e4a9002a24ef0050218000402188009a
:10316000402180001021880010218000002188006b
:1031700001208000f08f2f00008060000020880078
:103180000000000001208000000e20000080600090
:103190000000e000fbff3a000c24a8002468a8000f
:1031a0000080fa00000006000000fa0000d0bf0016
:1031b0000080fb004200dd00009088000000eb0072
:1031c000109088008000200020908800500d210081
:1031d000104078000080fb00c800dd00400d210099
:1031e000104078000080fb000100700030908800e3
:1031f000700d2100104078000080fb00c800dd0049
:10320000600d2100104078000080fb00010070007c
:1032100040908800900d2100104078000080fb0055
:10322000c800dd00800d2100104078000080fb0008
:103230000100700050908800b00d2100104078000f
:103240000080fb00c800dd00a00d210010407800c8
:103250000080fb000100700060908800000000000a
:1032600000000000000000003064a8000000000022
:10327000000000000000000000000000802180002d
:10328000680060000000e000fcff3a000080fa00e7
:10329000000006000000fa002023ef002223ef00c8
:1032a0002423ef003223ef002623ef0001198000d2
:1032b000f0cf2f0000806000001988002043a80094
:1032c00080c0b30024e3b70021198000f00f2e0066
:1032d0000080600000b0a000201988002143a800f1
:1032e00021e3a800790ea9007d0ea8006009200046
:1032f000450107002023a8000080fa000000060016
:103300000200fa00000f78002830ef002a30ef00aa
:10331000210037001e00780000407800f043b20022
:103320008080fb00f00320000080600042198000d4
:1033300001fc2f008100610001007000401988002d
:1033400001a8a9002023a90000000000000000003f
:10335000000000000000000000000000000000006d
:10336000000000000140800000002200008060009a
:103370000000e000fbff3200408180008000780008
:10338000001880000080400040818800508180004b
:103390000000e8005081880050818000e30f500059
:1033a000dcff3400408180004280de0040818800e4
:1033b0000080fa00000006000000fa000eeea900ee
:1033c000010ea90000eea900050ea80004eea80059
:1033d00001348000f00f2c00008060000080a0000d
:1033e000003488003ccea9008004200020368800ec
:1033f0003d0ea8002002a9000111800090ff2f00bf
:10340000008060000011880020a2a9002062a900ad
:10341000702020004011880023a2a80023e2a90008
:103420002188a80021e2a8000080fa000000060020
:103430000000fa000eeea90000eea900050ea9009a
:1034400004eea80080042000203688003d0ea8006d
:103450002002a9000111800090ff2f000080600071
:103460000011880020a2a9002062a900702020007d
:103470004011880011118000f0f32f0000806000df
:10348000101188002168a8002828a80021e2a800bf
:103490000080fa00000006000000fa00148ea90067
:1034a0009133800000fc2f00008060003000b300ea
:1034b000903388003002a9008111800090ff2f0016
:1034c000008060008011880030a2a9003062a9004d
:1034d00000042000c011880033a2a90033e2a80034
:1034e00023e8a80031e2a8000080fa0000000600ee
:1034f0000000fa0000000000111180000010200000
:10350000008060000000e000fbff320000000000cf
:103510001111800000802000008060000000e000a9
:10352000fbff3a002342a8002362a8002422ef00f8
:103530000000000050052000201188003030ef000e
:103540008081800061006000808188000080eb0045
:1035500090818800908180006100600090818800e7
:1035600000000000111180000010200000806000a9
:103570000000e000fbff320020342000a200070022
:1035800090818000c700dd00808180004600dd0062
:10359000810070003002200001007000a0818800ce
:1035a000a0818000201188002034200096000700b0
:1035b000a0818000c0818800507180004700de003b
:1035c000614060000080fb006100600000f0a70027
:1035d0000000ea000000e9004f00de0051718000a9
:1035e000c808de00e1c060008180fb00e18060006f
:1035f0000100e00002003a00210020000100370035
:103600008000eb0080807000507180004900de0077
:10361000614060000080fb00610060000000e0008d
:1036200002003a0040002000010037000000eb00db
:1036300001007000b0818800b08180005700070051
:1036400000000000111180000010200000806000c8
:103650000000e000fbff3200b081800020118800f4
:10366000308180004800de00b0818800b081800099
:103670004a00070000000000111180000010200027
:10368000008060000000e000fbff320020342000da
:103690005d000700b081800020118800318180002a
:1036a000f00f200000806000b0818800b0818000b1
:1036b0003a000700000000001111800000102000f7
:1036c000008060000000e000fbff3200203420009a
:1036d0004d000700b081800020118800208180000b
:1036e0004800de00b0818800b08180002b00070018
:1036f0000000000011118000001020000080600018
:103700000000e000fbff3200203420003e000700f4
:10371000b08180002011880021818000f00f2000fe
:1037200000806000b0818800b08180001b0007002d
:1037300000000000111180000010200000806000d7
:103740000000e000fbff3200203420002e000700c4
:10375000b081800020118800c08180008080ea0054
:10376000f00f200000806000c08188000000000091
:103770001111800000102000008060000000e000b7
:10378000fbff3200203420001f000700c0818000b2
:10379000201188000080fa00000006000200fa00f4
:1037a000000f7800c08180001e004000c0818800aa
:1037b000c1818000f00f2000808f50000500340090
:1037c000c1818000f00f2000008060000000e80050
:1037d000c08188000080fa00000006000200fa00a4
:1037e000004f78002c30ef00000000009e80fb00ae
:1037f00060818000808f5000fcff3c002c30ef0087
:103800000080fa00000006000400fa00100798008b
:103810000000eb00000f78000300370027000900cc
:10382000000000001e0fe8001e0090009e007800bf
:10383000808f5000f9ff35000080fa00000006007c
:103840000e00fa00881f7800400798005107980082
:10385000620798000000eb00000f78000000eb000a
:10386000100798000000eb00200798000000eb0014
:103870003007980018c0b3006011b8004e009000e7
:10388000de0090001cf507000000e000010035009c
:103890000044eb000804e0000b0032001e0078003a
:1038a000ee00900000804000d1c2b30001487800d3
:1038b0001e0fe8004e009000de00900001f0a20014
:1038c00040079800510798000000eb00200798007f
:1038d0000a00370002002000031224004e0090006e
:1038e000de009000c2f407004007980051079800de
:1038f0002e0090000000e8002007980018c0b300d8
:1039000002002000031224004e009000de00900010
:10391000fbf407000000e00001003d000044eb0064
:103920000804e000ebff3a001000200010079800a8
:103930002b0037004e009000de009000f2f40700ec
:10394000300798003e009000cf80de000ff50700a2
:103950000001be004e009000de00900046f407001b
:1039600040079800510798001e007800ee00900074
:1039700000804000be009000814078000143b0000c
:10398000014878001e0fe8002e0090000000e000c3
:1039900006003a001e007800ee0090000080400013
:1039a000e1c2b300014878001e0fe80002002000c9
:1039b000031224004e009000de00900049f507003d
:1039c00040079800510798002e0090000000e90081
:1039d000200798001e0090000000e80010079800e3
:1039e0001e009000e50f5000d2ff34004f04780015
:1039f0000080fa00000006000200fa00000f7800c4
:103a0000050037001e007800104078000000fb0021
:103a10001e0fe800060007001e0078001040780026
:103a20000004e000f7ff3a000080fa000000060002
:103a30000200fa00000f78000000000091118000e1
:103a400000202000008060000000e000fbff3a0042
:103a50001e007800a01188000080fa000000060017
:103a60000a00fa00400798000000eb0010079800d9
:103a70000000eb00000f78006000b80020079800fd
:103a8000310798004e009000304090000080fb000d
:103a9000c400dd00002021000080400010007800fc
:103aa00061006000100798001e0090000000e00018
:103ab0001a003a004e009000304090000080fb0059
:103ac000c400dd000020210000804000900078004c
:103ad000c0ff2100008060004200de008000eb009b
:103ae0004e01900020019800310198004e00900096
:103af00041c0b300214098004e009000304090003b
:103b00000080fb00c400dd00002021000080400098
:103b100010007800620f60006b0037004e009000cc
:103b2000304090000080fb00c400dd000020210038
:103b300000804000100078006101b800c0ff210043
:103b40000100200002027800030178008001780063
:103b50000100780003026200000061008000eb00b9
:103b6000c000dd00000020000001be006120b800a0
:103b700000017100818171002207980033079800cd
:103b80002e009000be009000c000dd00000020006c
:103b90004e01900020019800310198004e009000e5
:103ba000304090000080fb004400dd008080e80091
:103bb0000020210000804000100078006101b80062
:103bc000f0ff2000010020000202780003017800cd
:103bd00080017800010078000302620000006100ab
:103be0008000eb00c000dd00000020000001be00ee
:103bf0006120b800000171008181710022079800e6
:103c0000330798004e00900020019000b001900012
:103c10002e029000be0290004628dd00ca20de0081
:103c2000810070004620dd000200400083804800d3
:103c30004e01900020019800310198004e00900044
:103c4000304090000080fb004400dd00e4004000b4
:103c50000020210000804000100078004a00de00b3
:103c60008000eb0020079800310798004e0090007c
:103c700020019000b00190002e009000be00900046
:103c800002004000838048004e019000200198000f
:103c9000310198004e00900031c0b30021409800df
:103ca0004e009000304090000080fb004400dd009a
:103cb000e4004000002021000080400090007800d7
:103cc00000202000008f60001e007800e10f5000ef
:103cd00004003a004e00900021c0b300114098004b
:103ce000730037004e00900011c0b30011409800df
:103cf0004e009000304090000080fb004400dd004a
:103d0000e600400000202100008040001000780004
:103d1000004078008080fb004e0090004100980039
:103d20004e009000304090000080fb004400dd0019
:103d3000e6004000002021000080400010007800d4
:103d40004800de00004078008080fb004e009000bc
:103d5000510098004e009000304090000080fb0021
:103d60004400dd00e8004000002021000080400009
:103d700010007800004078008080fb004e0090002a
:103d8000610098004e009000304090000080fb00e1
:103d90004400dd00e80040000020210000804000d9
:103da000100078004800de00004078008080fb00b2
:103db0004e009000710098004e009000304090003e
:103dc0000080fb004400dd00ea00400000202100ec
:103dd0000080400010007800004078008080fb00e8
:103de0004e009000010898004e0090003040900076
:103df0000080fb004400dd00ea00400000202100bc
:103e000000804000100078004800de00004078008c
:103e10008080fb004e009000110898004e0090003a
:103e2000304090000080fb004400dd00ec004000ca
:103e30000020210000804000100078000040780041
:103e40008080fb004e009000210898004e009000fa
:103e5000304090000080fb004400dd00ec0040009a
:103e60000020210000804000100078004800de00a3
:103e7000004078008080fb004e00900031089800e0
:103e80004e009000304090000080fb004400dd00b8
:103e9000e400400000202100008040001000780075
:103ea00000407800ef4060004e00900001589800fc
:103eb0004e00900030409000020007000080fa00a1
:103ec000000006000200fa00004f78000021800088
:103ed000620060000000e000050032001e40780033
:103ee000e14f500002003a002024a90011003700e1
:103ef00000218000640060000000e0000500320046
:103f00001e407800e24f500002003a002044a90011
:103f10000800370000218000680060000000e00019
:103f2000040032001e407800e34f500001003a00c8
:0c3f30002064a9000080fa0000000600d8
:020000040000fa
:103f3c00d41000000800000082000000123456006b
:103f4c00789abc00def000006210000072000000e5
:103f5c008000000000120000000200008000000041
:103f6c00001000005a000000800000005a100000f1
:103f7c0008000000820000009a99d9003f7b1400d1
:083f8c001f42000000000000cc
:020000040000fa
:020000040005f5
:0457300083000000f2
:020000040000fa
:020000040005f5
:04573800a5010000c7
:020000040000fa
:020000040005f5
:045740009f030000c3
:020000040000fa
:020000040005f5
:04574800000000005d
:020000040000fa
:020000040005f5
:0457500082000000d3
:020000040000fa
:020000040005f5
:04577800000000002d
:00000001FF
